:020000040800F2
:10000000B0080020C5010008692400084D2200083E
:1000100089230008A9050008D52700080000000072
:100020000000000000000000000000007124000833
:10003000C5050008000000006D24000875240008B4
:10004000DF010008DF010008DF010008DF01000810
:10005000DF010008DF010008DF010008DF01000800
:10006000DF010008DF010008DF010008DF010008F0
:10007000DF010008DF010008AD050008B905000830
:10008000DF010008DF010008DF010008DF010008D0
:10009000DF010008DF010008DF010008DF010008C0
:1000A000DF010008DF010008DF010008DF010008B0
:1000B000DF010008DF010008DF010008DF010008A0
:1000C000DF010008DF010008DF010008DF01000890
:1000D000DF010008BD270008C9270008DF0100086C
:1000E000DF010008DF010008DF01000800F002F86E
:1000F00000F059F814A696E8000CB244B344DA456F
:1001000001D100F050F8BAE80F000FA696E83000D1
:10011000A5EB040504EB0607AAEB0704A7F101070A
:100120004FEA15154FEA3414A4F10104AC4201D38F
:1001300000F039F813F0010F18BFFB1A43F0010368
:1001400000F001F8DBE71847083D0000283D0000FB
:10015000103A24BF78C878C1FAD8520724BF30C8F3
:1001600030C144BF04680C60704700007047000055
:100170000023002400250026103A28BF78C1FBD8B0
:10018000520728BF30C148BF0B6070471FB500F051
:10019000A7F904000020002103F0C4FA401C6060AD
:1001A0001FBD10B510BD00F075F91146FFF7EEFF49
:1001B00002F012FB00F0A6F903B4FFF7F2FF03BC54
:1001C00000F0EAF90948804709480047FEE7FEE7E2
:1001D000FEE7FEE7FEE7FEE7FEE7FEE7FEE7FEE7F7
:1001E00004480549054A064B704700007924000879
:1001F000ED000008B0020020B0080020B00400208C
:10020000B004002070B5064600F064F804680546A6
:1002100030460A22002100F061F82C6070BD40EAEF
:10022000010310B59B070FD1042A0DD310C808C9CC
:10023000121F9C42F8D020BA19BA884201D9012075
:1002400010BD4FF0FF3010BD1AB1D30703D0521CC0
:1002500007E0002010BD10F8013B11F8014B1B1BFB
:1002600007D110F8013B11F8014B1B1B01D1921E65
:10027000F1D1184610BD10B5044610F0030F08BFA9
:1002800011F0030F40F015804FF0013E121FC0F235
:100290000E8051F8043BA3EB0E0C2CEA030C1CEA75
:1002A000CE1C08BF40F8043BF0D0A1F1040102F1DC
:1002B0000402521E08DB11F8013B00F8013B002B41
:1002C000F7D1114600F042F8204610BD7047704744
:1002D0007047000000487047100000202DE9F047EB
:1002E00091460F4680460446002614F8015B2DB166
:1002F00000F052F80068405DC007F6D12B2D02D007
:100300002D2D18D0641E4A463946204600F04CF880
:1003100027B13968A14201D1C7F800804FF002042B
:1003200071050BD54042002803DDFFF7D3FF0460C1
:10033000A007BDE8F08746F48066E4E70028F8DA15
:10034000FFF7C8FF04606FF00040F2E74FF00002D3
:100350000429C0F0128010F0030C00F07680CCF17C
:10036000040CBCF1020F18BF00F8012BA8BF20F845
:10037000022BA1EB0C0100F068B85FEAC17C24BF3E
:1003800000F8012B00F8012B48BF00F8012B704743
:10039000004870471000002010B500F0A1F8001DC3
:1003A00010BD00BF813300002DE9F05F8246154685
:1003B0008B4600270AF10104B9460078302801D0A5
:1003C0009DB113E014F8010B0127782803D05828B9
:1003D00001D045B10AE00DB1102D07D1002714F866
:1003E000010B102502E0082500E00A250026B04692
:1003F0000EE005FB080005FB06F101271FFA80F857
:1004000001EB1046B6F5803F00D3B94614F8010B56
:10041000294600F069F80028EBDABBF1000F05D09F
:100420000FB1641E00E05446CBF80040B9F1000F54
:1004300006D0FFF74FFF02210160C81EBDE8F09F04
:1004400048EA0640FAE74FF0000200B5134694462A
:100450009646203922BFA0E80C50A0E80C50B1F11C
:100460002001BFF4F7AF090728BFA0E80C5048BF30
:100470000CC05DF804EB890028BF40F8042B08BFCE
:10048000704748BF20F8022B11F0804F18BF00F8CA
:10049000012B70477546FFF77BFFAE4605006946A6
:1004A000534620F00700854618B020B5FFF798FEA8
:1004B000BDE820404FF000064FF000074FF0000865
:1004C0004FF0000BAC46ACE8C009ACE8C009ACE8A2
:1004D000C009ACE8C00921F007018D467047000053
:1004E00000487047300000203A2800D2303820F011
:1004F0002002412A01D3A2F13700884201D34FF0F4
:10050000FF30704710B50446AFF300802046BDE8C9
:100510001040FFF751BE00004FF0013C50F8042B93
:1005200051F8043B9A4221D1A2EB0C03934313EA06
:10053000CC1317D150F8042B51F8043B9A4215D133
:10054000A2EB0C03934313EACC130BD150F8042B0A
:1005500051F8043B9A4209D1A2EB0C03934313EAEE
:10056000CC13DBD04FF00000704700BFD01A01BAA7
:10057000B1FA81F101F0180122FA01F0CB40DBB2AF
:10058000C0B2C01AC1F120012CFA01F3D11A914373
:1005900011EAC311E6D1704701491820ABBEFEE74E
:1005A0002600020070470000FEE7000040F2D41071
:1005B000C2F2000000F0FCB940F29010C2F200005C
:1005C00000F0F6B97047000070B540F27004C2F256
:1005D0000004E079012809D16FF06305013505D2E7
:1005E000012000F047FBE0790028F7D10125012028
:1005F00000210022E57100F07DF80A2000F03AFBAE
:10060000E07901280AD16FF0630600BF013605D2F8
:10061000012000F02FFBE0790028F7D10220002113
:100620000022E57100F066F80A20BDE8704000F095
:1006300021BB000040F20E13C2F200031870F32039
:100640005870AB20987040F21820D9701A714FF092
:100650006B0CC2F200001946062283F805C001F0B7
:1006600081BD000040F21E13C2F200031870462044
:1006700058706920987040F21820D9701A714FF0A4
:100680006B0CC2F200001946062283F805C001F087
:1006900069BD000040F22E13C2F20003187045201D
:1006A000587066209870100AD970187140F218209E
:1006B0005A714FF06B0CC2F200001946072283F802
:1006C00006C001F04FBD000040F23E13C2F200032D
:1006D0001870932058708820987040F21820D970B4
:1006E0004FF06B0CC2F200001946052283F804C0DB
:1006F00001F038BD40F24E13C2F2000318709A2088
:10070000587040F218209970DA704FF06B0CC2F2FA
:1007100000001946052283F804C001F023BD000043
:1007200080B540F2CC0C0223C2F2000C8E460228A7
:1007300008BF12230CF1020108BF0CF112010CF8E2
:1007400003000323022808BF1323FC220CF8032014
:1007500004234FEA1E62022808BF14230CF803206A
:100760004FF005034FEA1E4208BF15230CF8032083
:100770004FEA1E220623022808BF16230CF8032086
:100780004FF0070208BF17220CF802E008220228E7
:1007900008BF18226B200CF802004EF67C4040F295
:1007A0001822CFF6FF70C2F2000200BF92F841306B
:1007B000202B0FD092F84130202B0BD092F84130F3
:1007C000202B07D092F84130202B03D0002800F1D5
:1007D0000400EBD140F21820C2F200000722BDE86D
:1007E000804001F0BFBC000080B540F25E1CC2F248
:1007F000000CDDF808E08CF80000F1208CF8010016
:10080000080A8CF802008CF803108CF804208CF88D
:1008100005306B2340F218208CF806E0C2F200008D
:10082000614608228CF80730BDE8804001F09ABC90
:1008300040F26E13C2F200031870FE205870982028
:10084000987040F21820D9704FF06B0CC2F2000083
:100850001946052283F804C001F084BC80B540F23B
:100860007E1CC2F2000CDDF808E08CF80000F620D7
:100870008CF80100100A8CF802108CF803008CF838
:1008800004208CF805306B2340F218208CF806E029
:10089000C2F20000614608228CF80730BDE88040B3
:1008A00001F060BCEFF3108072B600BFFEE70000FD
:1008B000014690F82100022816D10868D1E90FC33B
:1008C000026822F00E020260026822F00102026059
:1008D000012000FA03F2CCF8042081F82100002066
:1008E000002281F820207047042088630120002224
:1008F00081F820207047000090F82110022923D1B0
:10090000026840F2040C1168C4F2020C21F00E01DE
:10091000116013682F21C4F202018A4223F00103FF
:10092000136015DD3023C4F202039A421CD0442325
:10093000C4F202039A421BD05823C4F202039A4223
:100940001CD14FF4803321E00421816301207047E2
:100950000823C4F202039A420ED01C23C4F20203FD
:100960009A420BD1102311E04FF480730EE000BFC8
:100970004FF480530AE000BF012307E00CF1680147
:100980004FF080738A4208BF4FF480130121CCF8E6
:10099000003080F82110416B0022002980F82020CF
:1009A00004BF0020704780B58847002080BD00004C
:1009B00010B5D0E90FCE0168DCF800300A6823FAE0
:1009C0000EF35C072AD512F0040427D00A689206B9
:1009D00003D40A6822F004020A602F22C4F2020241
:1009E000914240F20402C4F202025BDD3023C4F201
:1009F0000203994272D04423C4F20203994273D095
:100A00005823C4F20203994240F07A804FF48023C5
:100A10001360C16A002940F098806FE09C0727D5D9
:100A200012F0020424D00A68920606D40A6822F062
:100A30000A020A60012280F821202F22C4F2020259
:100A4000914240F20402C4F202023BDD3023C4F2C0
:100A50000203994260D04423C4F2020399425FD05A
:100A60005823C4F20203994260D14FF4003365E089
:100A70001B0743D512F0080208BF10BD0A6822F018
:100A80000E020A60012101FA0EF2CCF80420816303
:100A900080F82110016B0022002980F8202054D119
:100AA0002CE000BF0823C4F20203994222D01C2389
:100AB000C4F20203994223D140231360C16A002982
:100AC00043D11BE00823C4F2020399422CD01C231B
:100AD000C4F20203994229D120232FE04FF480630E
:100AE0001360C16A89BB09E04FF480431360C16A97
:100AF00059BB03E004231360C16A31BB10BD00BFC2
:100B000002F168044FF08063A14208BF4FF48003F4
:100B10001360C16AC9B9F1E74FF400730EE000BF7A
:100B20004FF400530AE000BF022307E002F168041B
:100B30004FF00073A14208BF4FF400131360816AA5
:100B40000022002980F82020D8D0BDE810400847B6
:100B5000014600284FF0010008BF70472DE9F0431F
:100B6000D1F800C04FF6F873CBF6FD734CF6CD42CA
:100B70006344CCF6CC42A3FB02236FF0030202EAEB
:100B800093020023C4F2020301F10C08C1E90F3201
:100B90000222D1E9019E98E8F00181F82120DCF8D9
:100BA000002043F6F0739A4342EA090242EA0E0239
:100BB00022432A4332433A4342EA0802CCF8002057
:100BC00000228A6381F8210081F820200020BDE8FE
:100BD000F043704790F820C0BCF1010F04BF022021
:100BE0007047F0B54FF0010E80F820E090F821C07A
:100BF000BCF1010F26D14FF0020C80F821C04FF05C
:100C0000000CC0F838C0D0E900C4C56AC66BDCF877
:100C10000070102C27F00107CCF80070006C0EFA61
:100C200000F070600846CCF8043004BF10460A4655
:100C3000CCF80800CCF80C20DCF8000045B140F0FE
:100C40000E000DE0002180F820100220F0BD00BF52
:100C500020F00400CCF80000DCF8000040F00A00AE
:100C6000CCF80000DCF8000040F00100CCF80000F7
:100C70000020F0BDB0B5044600F026F9054640F26C
:100C80000000C2F200000078611C18BF044400BFDD
:100C900000F01AF9401BA042FAD3B0BD2DE9F04F85
:100CA00082B00E68002E00F0FD8041F20042C4F2D6
:100CB0000102042340F2004E904208BF03234FF686
:100CC000FF7CC4F2010E009300240123C1F2100C3A
:100CD0004FF0000A4FF000094BE000BF41F2000264
:100CE000C4F20102009F904208BF022704F00C03E7
:100CF0000F229A402BEA020207FA03F34FEA9A0501
:100D00001A4346F825204E6840F20C45F202DEF800
:100D1000082054BF22EA080242EA0802C4F2010590
:100D2000CEF808202A68B30254BF22EA080242EA39
:100D300008022A60B303DEF8042054BF22EA080246
:100D400042EA0802F303CEF80420DEF800204FF058
:100D5000010354BF22EA080242EA0802CEF800204A
:100D60000E680AF1010A36FA0AF204F1040400F0EE
:100D7000998003FA0AFB16EA0B08F1D04E68664523
:100D800012DC122E56D8DFE806F0350B4D495555CA
:100D9000555555555555555555555545510000BF57
:100DA000D1F80C9046E000BF4FF6FF72C1F221026D
:100DB00096420FDC0022C1F2110296421AD00022A4
:100DC000C1F21202964215D00022C1F221029642CF
:100DD00010D02FE00022C1F2220296420AD0002257
:100DE000C1F23102964205D00022C1F2320296428F
:100DF00020D100BF8A684AB1012A14BFC0F814B0DC
:100E0000C0F810B04FF0080914E000BF4FF004091B
:100E100010E000BFCA6802F104090BE04FF00009BE
:100E200008E000BFCA6802F1080903E0CA6802F1DD
:100E30000C0900BF02462646B8F5807F24BF043265
:100E4000203E17680F25B54027EA050509FA06F682
:100E500035431560CA79D2067FF582AF41F2180397
:100E6000C4F202031A68AEF57E7642F001021A60FF
:100E70001A6802F001020192019A2AF0030256F860
:100E800002B040F60002C4F20102904208D040F6DF
:100E90000042C4F2010290427FF420AF012725E70F
:100EA000002723E702B0BDE8F08F0000C26802EA25
:100EB0000103914341EA034101617047002A08BFE1
:100EC000090401617047000040F2A820C2F200004E
:100ED0000068704740F2000040F2A821C2F2000012
:100EE000C2F2000100780A681044086070470000F0
:100EF00080B542F20000C4F20200016841F0100126
:100F00000160032000F08CF80F2000F005F800F0DD
:100F100027F8002080BD000070B540F20006C2F244
:100F2000000640F208013278C2F200014FF47A73F1
:100F30000968B3FBF2F20446B1FBF2F1084600F097
:100F400085FB0F2C4FF0010508D838B94FF0FF3062
:100F500021460022002500F037F87460284670BD55
:100F600082B041F21800C4F202000168022241F08E
:100F700001010160016801F00101019101994168DD
:100F800041F080514160406800F08050009000982E
:100F90000420C4F20100016862F31A61016002B02A
:100FA00070470000002848BF704700F01F01012271
:100FB00002FA01F11C2202EAD0004EF20012CEF237
:100FC000000281507047000010B54EF60C5CCEF266
:100FD000000CDCF80030C3F3022E8EF00704042C62
:100FE00028BF0424BEF103034FF0FF3E0EFA04F4C1
:100FF00038BF0023A14399400EFA03F39A431143EB
:1010000000F00F0200F160430901043A03F5644364
:101010006244002848BF02F10C03197010BD0000A3
:101020004EF60C51CEF200010A684FF6FF031A404B
:1010300060F30A2242F0806040F0FD700860704763
:10104000002804BF012070472DE9F04381B042F22F
:101050000008C4F202080446D8F800000D4600F06B
:10106000070081420CD9D8F8000020F0070028437F
:10107000C8F80000D8F8000000F00700A8426CD1C2
:10108000206841F204098107C4F2020917D541071B
:1010900005D5D9F8001041F4E061C9F80010010746
:1010A00005D5D9F8001041F46051C9F80010D9F8FD
:1010B0000010A26821F0F0011143C9F80010C00728
:1010C00042D1D8F8000000F0070085420CD2D8F8D1
:1010D000000020F007002843C8F80000D8F80000FE
:1010E00000F00700A84238D12068410707D5D9F899
:1010F0000010E26821F4E0611143C9F80010000714
:1011000008D5D9F80000216920F4605040EAC100F8
:10111000C9F80000D9F8002002F00C00082841F2BC
:101120000020C0F27A004DD143F64063C2F3834100
:10113000C0F60003595CD20338D440F60010C0F268
:101140003D0048433EE000BF606859F8041C022897
:1011500008D0012826D1890306D4012001B0BDE8BA
:10116000F08300BF8901F8D5D9F8001021F0030100
:101170000843C9F80000FFF7A7FE064641F288378A
:10118000D9F80000616800F00C00B0EB810F98D036
:10119000FFF79AFE801BB842F2D9032001B0BDE8E8
:1011A000F08300BF8907D8D5DEE700BFD9F800205B
:1011B00043F63E63C2F34042C0F600039A5C4843E4
:1011C000B0FBF2F0D9F8001043F62662C1F3031128
:1011D000C0F60002515C40F2080220FA01F140F230
:1011E0000400C2F200000068C2F200021160FFF7C2
:1011F00093FE002001B0BDE8F083000040F208003B
:1012000041F20401C2F20000C4F202010068096860
:1012100043F63662C1F30221C0F60002515CC840B9
:101220007047000040F2080041F20401C2F20000E1
:10123000C4F202010068096843F63662C1F3C221B4
:10124000C0F60002515CC84070470000002804BF8F
:10125000012070472DE9F04182B00446007841F248
:101260000006C007C4F202060CD0706800F00C0043
:10127000042840F081803068800303D5606800282E
:1012800000F04681207880071BD5706810F00C0FA5
:1012900009D0706800F00C00082840F08780706862
:1012A000C00300F183803068800703D520690128DE
:1012B00040F02E813068616920F0F80040EAC100FA
:1012C00030602078000713D4207840072CD4E569DB
:1012D000002D00F01881706800F00C00082840F024
:1012E000A780012D40F00481012002B0BDE8F0810B
:1012F000A069002800F084800020C4F2422001216F
:10130000C0F88014FFF7E0FD054600BF706A800753
:1013100000F1B280FFF7D8FD401B0228F6D9032068
:1013200002B0BDE8F08100BFF0695FEAC00808D4F0
:10133000F06940F08050F061F06900F0805000905A
:10134000009847F20007C4F200073868C00549D486
:10135000386840F480703860FFF7B6FD054600BF7E
:101360003868C0053ED4FFF7AFFD401B6428F7D9AD
:10137000032002B0BDE8F081706800F00C0008287E
:1013800003D17068C0033FF576AF6168306800290B
:1013900000F00C81B1F5A02F00F00081B1F5803F85
:1013A00040F01A8140F480301CE100BF2069002821
:1013B00040F20000C4F2422000F088800121016068
:1013C000FFF782FD054600BF306880073FF572AF2A
:1013D000FFF77AFD401B0228F6D9032002B0BDE8D2
:1013E000F08100BFE168306A002900F09D80052986
:1013F00000F09280012940F0AF8040F00100B1E0A0
:101400000020C4F242200021C0F88014FFF75CFDE8
:10141000054600BF706A80077FF556AFFFF754FDA1
:10142000401B0228F6D9032002B0BDE8F08100BFBE
:101430000027C4F2422700203866FFF745FD022D41
:1014400005460DD13068800140F1DE80FFF73CFD9C
:10145000401B02284FF00300F4D902B0BDE8F08130
:10146000306880014FD5FFF72FFD401B02284FF059
:101470000300F5D9F1E700BF40F20800C2F2000016
:10148000006844F6D351C1F26201A0FB0101480A91
:10149000019000BF00BF0198411E002801913FF458
:1014A00013AF00BF0198411E002801913FF40CAF1B
:1014B00000BF0198411E002801913FF405AF00BF15
:1014C0000198411E00280191E4D1FDE60021016050
:1014D000FFF7FAFC054600BF306880077FF5F1AEE4
:1014E000FFF7F2FC401B02284FF00300F4D9B4E7E9
:1014F0007068216A00F480328A4209D1616A00F47E
:101500007010884204D1002002B0BDE8F08100BF15
:10151000012002B0BDE8F08140F004003062306A82
:1015200040F001001EE000BF20F001003062306A90
:1015300020F004003062FFF7C7FC054641F288370F
:10154000306A800720D5FFF7BFFC401BB8424FF040
:101550000300F5D981E700BF20F001003062306A56
:1015600020F004003062FFF7AFFC054641F28837F7
:10157000306A800708D4FFF7A7FC401BB842F7D9B0
:10158000032002B0BDE8F081B8F1000F3FF59FAE37
:10159000F06920F08050F06199E600BF40F48020AF
:1015A0003060306840F480301CE000BF20F48030B0
:1015B0003060306820F480203060FFF785FC0546FD
:1015C000306880037FF55EAEFFF77EFC401B642829
:1015D0004FF00300F4D940E720F4803030603068E9
:1015E00020F480203060FFF76FFC054630688003F0
:1015F0003FF548AEFFF768FC401B6428F6D903208E
:1016000002B0BDE8F08100BF206AB0F5803F05D18F
:101610007168A26821F40031114371607168626AD7
:1016200021F4741111430843706001203866FFF7FC
:101630004BFC0446306880013FF565AFFFF744FC82
:10164000001B02284FF00300F4D906E7411E0020DA
:10165000B0EB116F1CBF012070474EF21002CEF2AA
:10166000000251604EF62351CEF20001F0230B70C0
:1016700007219060116070477047000070470000BC
:10168000B0B582B001680A68CC684B6902F02F05DA
:10169000202D04F0200505D125B102B0BDE8B040F1
:1016A00001F00CB85FEA027C1EBF03F0010E04F4E7
:1016B000907313EB0E0341D1036BD50618D5012BA4
:1016C00016D114F0100313D0002201920A6801927F
:1016D0004A680192019A496949064BD4818DC28DAD
:1016E000C38D002B18BF914240F0F48102B0B0BD11
:1016F00013062DD514F080032AD090F84120212A1A
:10170000F4D18268B2F5805F03D10269002A00F04B
:101710006782026A531C036212784A60C28C013AE3
:101720001304C284E2D1C86820F08000C860C86891
:1017300040F04000C86002B0B0BD00BFD30718BF82
:1017400014F4807340F0D080530700F1D380D8E0C8
:101750005206CBD514F04002C8D0CA6822F040022D
:10176000CA60202180F8411002B0BDE8B04000F00E
:101770005BBD00BFC16B0A68526893B2002BB5D045
:10178000858DAB42B2D2C2858969202900F0A18043
:10179000016851E8031F026821F4807142E80313D5
:1017A000DBB1016851E8031F026821F4807142E84F
:1017B000031393B1016851E8031F026821F480719B
:1017C00042E803134BB1016851E8031F026821F49A
:1017D000807142E80313002BDAD1016851E8051F3C
:1017E000026821F0010142E80513C3B3016851E822
:1017F000051F026821F0010142E805137BB301686F
:1018000051E8051F026821F0010142E8051333B3D6
:10181000016851E8051F026821F0010142E8051343
:10182000002BDAD11BE000BF016851E8051F0268F8
:1018300021F0400142E80513DBB1016851E8051FC2
:10184000026821F0400142E8051393B1016851E8B4
:10185000051F026821F0400142E805134BB1016801
:1018600051E8051F026821F0400142E80513002BF2
:10187000DAD1202180F8421000210163016851E88B
:10188000031F026821F0100142E80313DBB1016875
:1018900051E8031F026821F0100142E8031393B1DD
:1018A000016851E8031F026821F0100142E80313A8
:1018B0004BB1016851E8031F026821F0100142E8B2
:1018C0000313002BDAD1C16B04460846FEF7F0FF84
:1018D000204602214163818DC28D891A89B202B0EE
:1018E000BDE8B040FFF7C8BE436C43F0010343645A
:1018F000530706D5BEF1000F03D0436C43F002033B
:101900004364930706D5BEF1000F03D0436C43F048
:1019100004034364BCF1000F06D55EEA050303D05F
:10192000436C43F008034364436C002B3FF4DEAE8A
:10193000920605D525B1044600F0C0FE2168204678
:101940004969426C01F0400102F00802891800F078
:10195000B98000BF016851E8031F026821F490714B
:1019600042E80313BBB3016851E8031F026821F486
:10197000907142E8031373B3016851E8031F0268D2
:1019800021F4907142E803132BB3016851E8031F5F
:10199000026821F4907142E80313002BDAD11AE0B7
:1019A000016851E8051F026821F0010142E80513B2
:1019B000DBB1016851E8051F026821F0010142E82E
:1019C000051393B1016851E8051F026821F0010178
:1019D00042E805134BB1016851E8051F026821F088
:1019E000010142E80513002BDAD1016B012924D152
:1019F000016851E8031F026821F0100142E8031357
:101A0000DBB1016851E8031F026821F0100142E8D0
:101A1000031393B1016851E8031F026821F010011C
:101A200042E803134BB1016851E8031F026821F03B
:101A3000100142E80313002BDAD1202180F8421074
:101A40000021016301684969490640F1C3800168CA
:101A500051E8051F026821F0400142E80513DBB19F
:101A6000016851E8051F026821F0400142E80513B2
:101A700093B1016851E8051F026821F0400142E876
:101A800005134BB1016851E8051F026821F04001C0
:101A900042E80513002BDAD1C16B002900F09A80CF
:101AA00042F27D42C0F60002044608464A63FEF751
:101AB00023FF00283FF41AAEE06B416B02B0BDE893
:101AC000B04008470446FFF7D9FD0020606402B02B
:101AD000B0BD00BF891A00BF026852E8032F036837
:101AE00022F4907243E80325BDB3026852E8032F45
:101AF000036822F4907243E8032575B3026852E844
:101B0000032F036822F4907243E803252DB3026883
:101B100052E8032F036822F4907243E80325002D56
:101B2000DAD11AE0026852E8052F036822F00102B8
:101B300043E80525DDB1026852E8052F036822F06D
:101B4000010243E8052595B1026852E8052F0368B4
:101B500022F0010243E805254DB1026852E8052F45
:101B6000036822F0010243E80525002DDAD1202286
:101B700080F8422000220263026852E8032F0368C3
:101B800022F0100243E80325DDB1026852E8032F7A
:101B9000036822F0100243E8032595B1026852E879
:101BA000032F036822F0100243E803254DB10268B9
:101BB00052E8032F036822F0100243E80325002DAA
:101BC000DAD1022289B2426302B0BDE8B040FFF729
:101BD00053BD00BF02B0BDE8B040FFF74FBD00BF2E
:101BE000026A32F8023B6FF35F234B60026295E5B5
:101BF000002804BF0120704710B5044690F841004A
:101C000028B9002084F84000204600F063F8242022
:101C100084F841002068D4E90212C36823F4005319
:101C2000C360036923F440531A430261D4E90423D7
:101C30001143C268194341F20C639A431143C160D6
:101C40004169A26921F44071114343F60002C4F2D4
:101C500001029042416103D0FFF7D0FA02E000BFD9
:101C6000FFF7E0FAD4E90023192148439900B0FBBB
:101C7000F1F048F21F5CC5F2EB1CA0FB0C314FF6F3
:101C80009C734909C0F6FF7301FB0300322303EB89
:101C90000010A0FB0C03F02000EA531000EB011031
:101CA000C3F34311084490601069202120F4904050
:101CB0001061506920F02A005061D06840F4005053
:101CC000D0600020606484F8411084F842106063A2
:101CD00010BD00002DE9F04186B00446006844F2D2
:101CE0000041C4F20001002688420596CDE9036652
:101CF00002966DD043F60001C4F20101884240F023
:101D00009D8041F21800C4F20200016840F600050F
:101D100041F4804101600168C4F2010501F4804191
:101D200001910199016802AE41F00401016000686F
:101D300040F2440800F00400019001984FF4007054
:101D40000290022003900320059028463146C4F2F9
:101D50000208FEF7A3FF4FF4806002900027284698
:101D60003146CDE90377FEF799FF40F2D415C2F270
:101D7000000510208026C5E900802846C5E90276C6
:101D8000C5E90477C5E90677FEF7E2FE002818BF2B
:101D9000FEF788FDA5636C6240F2901508F114000F
:101DA000C2F20005C5E900072846C5E90276C5E983
:101DB0000477C5E90677FEF7CBFE002818BFFEF7CB
:101DC00071FDE5636C62252000210022252430E0AE
:101DD00041F21800C4F20200416840F6000441F4E8
:101DE000003141604168C4F2010401F40031019105
:101DF0000199016802AD41F00401016000682946C3
:101E000000F0040001900198042002900220039049
:101E1000032005902046FEF741FF0820CDE9020689
:101E2000204629460496FEF739FF2620012100228C
:101E30002624FFF7C9F82046FFF7B4F806B0BDE83E
:101E4000F081000090F84230202B07D100294FF09C
:101E5000010318BF002A05D118467047022318460F
:101E6000704700BF00230363816222218285C285FF
:101E7000436480F842100169006819B1C16841F4F7
:101E80008071C160416941F001014161C16841F067
:101E90002001C16018467047016844F20040C4F256
:101EA0000000814218BF704770B584B000F54C4007
:101EB0004FF40051FEF7FAFF40F27006C2F200063E
:101EC00030780D2801D00A283AD17078042841D002
:101ED0000A2865D1F16B44F64872C4F24D520020D5
:101EE000914286F8460051D0F06B44F25311C4F28F
:101EF000565188424ED006F13C0432A120460A22B7
:101F0000FEF78DF9002849D00DF10B052846214632
:101F10000522FEF7B0F90DF1060406F14101204655
:101F20000522FEF7A8F92846FEF76CF9F081204655
:101F3000FEF768F930820120B07000202FE000BF6A
:101F400071781E292CD84A1C3144727081F83C00EB
:101F500028E000BFF16B44F64872C4F24D520020F5
:101F6000914286F8400011D0F06B44F25311C4F254
:101F7000565188420ED0F06B44F25331C4F64161A1
:101F8000884204BF0120B0710AE000BF0120307117
:101F900006E000BF0120707102E000BF0120F07078
:101FA0000020707040F2602040F27001C2F2000028
:101FB000C2F200010122FFF745FF04B0BDE8704006
:101FC000704700BF2B303030302B303030300000C5
:101FD0002DE9F04381B0044690F84100202809D152
:101FE00000294FF0010018BF002A07D101B0BDE859
:101FF000F08300BF022001B0BDE8F08300206064E0
:1020000021201D460E4684F841001746FEF75CFF6E
:10201000A784E784A1688146B1F5805F02D1206979
:1020200000285DD037460020E28C2168002A5DD070
:102030006A1C24D0002D4AD0804600BF08680006E4
:1020400008D4FEF741FFA0EB0900A8427AD8216826
:10205000C868F3E717B117F8010B04E038F8020B72
:1020600000276FF35F204860E08C0138E084E08C4B
:102070000028E3D13AE000BF0A68120609D40A68D2
:10208000120606D40A6812065CBF0A685FEA02629A
:10209000F2D51FB117F8012B05E000BF30F8022B75
:1020A00000276FF35F224A60E28C013AE284E28CFF
:1020B000002AE4D11AE000BF30F8022B00276FF3AA
:1020C0005F224A60E28C013AE284E28C72B10A68D3
:1020D000120635D5002FEFD017F8012BF1E700BF1E
:1020E00000273046E28C2168002AA1D1086840060A
:1020F0001ED42DB3681C14D1086840062AD4086881
:10210000400627D40868400624D4086840064FF0EB
:102110000000F1D50DE000BF2068C16800684006EE
:1021200018D4FEF7D1FEA0EB0900A842F4D909E0CB
:102130000020202184F8411001B0BDE8F08300BFE9
:10214000FEF7C2FE0320202184F8411001B0BDE853
:10215000F08300BF0020202184F8411001B0BDE8C9
:10216000F083000090F84130202B09D194460029DB
:102170004FF0010218BFBCF1000F05D110467047A7
:1021800002221046704700BF70B500222123016271
:10219000A0F824C0A0F826C0426480F8413004684A
:1021A000836B42F2056E42F2B56542F28946C0F693
:1021B000000EC0F60005C0F60006C3E90AE5C3E953
:1021C0000C62221D044618466346FEF703FD216893
:1021D00020466FF040020A60016851E8051F02685E
:1021E00041F0800142E80513DBB1016851E8051FA9
:1021F000026841F0800142E8051393B1016851E89B
:10220000051F026841F0800142E805134BB10168E7
:1022100051E8051F026841F0800142E80513002BD8
:10222000DAD1002070BD0000006843F60001C4F25E
:102230000101884218BF704740F27000C2F20000EE
:102240000021C1717047000070470000FEE70000E8
:1022500080B582B041F21400C4F20200016800228D
:1022600041F0010101600068002100F001000190CF
:1022700001980E20FEF7A8FE0E20FEF793FE0F2019
:1022800000210022FEF7A0FE0F2002B0BDE8804032
:10229000FEF788BE70B586B0002541F21800CDE982
:1022A0000455CDE90255C4F20200016841F2000470
:1022B00041F0100101600168C4F2010401F0100155
:1022C000019101990168002241F02001016001683B
:1022D0004FF4005601F0200101910199016841F08D
:1022E0000401016000684FF4005100F00400019007
:1022F00001982046FEF7E2FD0120CDE9030502200A
:10230000059002A920460296FEF7C8FC06B070BDF3
:1023100080B540F2182043F60001C2F20000C4F27A
:10232000010100234FF00C0C4FF4E13280E80E0065
:10233000C0E90333C0E905C3C361FFF759FC0028B6
:1023400008BF80BDBDE88040FEF7ACBA80B540F262
:10235000602044F20041C2F20000C4F200010023F8
:102360004FF00C0C4FF4E13280E80E00C0E903336B
:10237000C0E905C3C361FFF73BFC002808BF80BD6F
:10238000BDE88040FEF78EBAFEE7000070B582B06F
:1023900040F27004C2F20004E07901280AD16FF023
:1023A000630500BF013505D20120FEF763FCE0792B
:1023B0000028F7D10125012001210022E571FEF757
:1023C00039F90A20FEF756FCE07901280AD16FF0AE
:1023D000630600BF013605D20120FEF74BFCE07911
:1023E0000028F7D1022001210022E5710026FEF726
:1023F00021F90A20FEF73EFCE07901280AD16FF0AE
:10240000630500BF013505D20120FEF733FCE079FA
:102410000028F7D1012501204FF49671962202235E
:10242000E5710096FEF7E0F90A20FEF723FCE0795B
:10243000012809D16FF06306013605D20120FEF7AD
:1024400019FCE0790028F7D10026022078213C22EF
:102450000223E5710096FEF7C7F9C820FEF70AFCD3
:10246000257202B070BD0000FEE70000704700005A
:1024700070470000FEF72EBD70470000406A002143
:10248000C185C184FFF7FAB8406A01684A6990F8CB
:102490004130212B2DD112F080022AD00021C1849D
:1024A000016851E8031F026821F0C00142E80313EC
:1024B000DBB1016851E8031F026821F0C00142E866
:1024C000031393B1016851E8031F026821F0C001B2
:1024D00042E803134BB1016851E8031F026821F081
:1024E000C00142E80313002BDAD1202180F841100B
:1024F0000168496990F84220222A40F07D8011F05D
:10250000400179D00021C185016851E8031F0268AC
:1025100021F4907142E80313BBB3016851E8031F33
:10252000026821F4907142E8031373B3016851E823
:10253000031F026821F4907142E803132BB3016872
:1025400051E8031F026821F4907142E80313002B45
:10255000DAD11AE0016851E8051F026821F0010193
:1025600042E80513DBB1016851E8051F026821F05C
:10257000010142E8051393B1016851E8051F0268A3
:1025800021F0010142E805134BB1016851E8051F34
:10259000026821F0010142E80513002BDAD1016B3A
:1025A000012924D1016851E8031F026821F01001BC
:1025B00042E80313DBB1016851E8031F026821F010
:1025C000100142E8031393B1016851E8031F026848
:1025D00021F0100142E803134BB1016851E8031FD9
:1025E000026821F0100142E80313002BDAD1202108
:1025F00080F8421000210163416C41F010014164F8
:10260000FFF73CB80168406A0968890648BFFFF7D0
:102610000BBE0021C18400BF016851E8051F02689C
:1026200021F0800142E8051383B3016851E8051FDA
:10263000026821F0800142E805133BB3016851E8CC
:10264000051F026821F0800142E80513F3B101681B
:1026500051E8051F026821F0800142E80513002BB4
:10266000DAD113E0016851E8031F026841F040012C
:1026700042E80313002B08BF7047016851E8031FAD
:10268000026841F0400142E8031393B1016851E848
:10269000031F026841F0400142E803134BB1016897
:1026A00051E8031F026841F0400142E80313002B88
:1026B000D8D17047406AFFF7C7BD000081B090F8DD
:1026C0004210222921D183680246B3F5805F09D1E7
:1026D00052F8281F52F8183C002B63D003685B683F
:1026E0000AE000BF52F8281F13B90369002BF5D088
:1026F00003685B6803F07F030B70116801311160A0
:10270000C18D01390A04C18502D001B0704700BFF4
:102710000168CA6822F02002CA60CA6822F4807286
:10272000CA604A6922F001024A61202180F8421001
:1027300000214163026B012A3CD10163016851E829
:10274000031F026821F0100142E80313DBB10168A6
:1027500051E8031F026821F0100142E8031393B10E
:10276000016851E8031F026821F0100142E80313D9
:102770004BB1016851E8031F026821F0100142E8E3
:102780000313002BDAD101680A68D20606D50022AD
:1027900000920A680092496800910099818D01B009
:1027A000FEF76ABF026852686FF35F2221F8022BBE
:1027B0008162A5E701B0FFF76FBB000040F218206F
:1027C000C2F20000FEF75CBF40F26020C2F20000DF
:1027D000FEF756BFFEE7000092B0FEF789FB00242B
:1027E0000120CDE90D44CDE90B4408900C904FF445
:1027F000E0104FF480310225119008A8CDE90914AA
:10280000CDE90F51FEF722FD20B1EFF3108072B633
:10281000FEE700BF0F20CDE903054FF48060CDE94E
:10282000060403A802210594FEF70AFC20B1EFF389
:10283000108072B6FEE700BF41F20005C4F2010548
:10284000FFF728FDFFF704FDFFF762FDFFF77EFDB0
:1028500041F22400C4F20200066840F2E040C4F2F3
:1028600042204FF0010840F27004C0F8008040F2AE
:102870006020C2F20004C2F2000021460122FFF7EC
:10288000E1FA28464FF4005100224FF0000AFEF70B
:1028900015FB9620FEF7EEF928464FF40051012271
:1028A000FEF70CFB9620FEF7E5F928464FF40051A1
:1028B0000022FEF703FB9620FEF7DCF928464FF4D2
:1028C00000510122FEF7FAFA9620FEF7D3F92846C6
:1028D0004FF400510022FEF7F1FA9620FEF7CAF9F4
:1028E00028464FF400510122FEF7E8FA9620FEF741
:1028F000C1F94FF4FA70FEF7BDF940F21820C2F2A8
:1029000000000FF6AC5106224FF47A73FFF760FB1C
:10291000C820FEF7AFF94FF4FA70FEF7ABF90120CB
:102920000121002284F80780FDF784FEC820FEF70D
:10293000A1F902200121002284F80780FDF77AFE28
:10294000C820FEF797F902200121012284F80780B0
:10295000FDF788FEC820FEF78DF90220012140F620
:10296000B83284F80780FDF795FE3220FEF782F931
:1029700001204FF496719622022384F80780CDF847
:1029800000A0FDF731FF0A20FEF774F9022078213C
:102990003C22022384F80780CDF800A0FDF724FF35
:1029A0000A20FEF767F9700160D528464FF4005100
:1029B0000022FEF783FA3220FEF75CF928464FF436
:1029C00000510122FEF77AFA3220FEF753F9284629
:1029D0004FF400510022FEF771FA3220FEF74AF957
:1029E00028464FF400510122FEF768FA3220FEF724
:1029F00041F928464FF400510022FEF75FFA3220D9
:102A0000FEF738F928464FF400510122FEF756FA36
:102A10003220FEF72FF928464FF400510022FEF72E
:102A20004DFA3220FEF726F928464FF400510122D4
:102A3000FEF744FA3220FEF71DF928464FF4005104
:102A40000022FEF73BFA3220FEF714F928464FF435
:102A500000510122FEF732FA3220FEF70BF9FDF7A2
:102A6000B3FD03E084F809A0EAE000BF2079012863
:102A700043D184F804A084F802A084F806A0607A08
:102A800020B184F809A0FEF71FFA6061207A0028BF
:102A900008BFFFF77BFCE079012809D16FF06305DF
:102AA000013505D20120FEF7E5F8E0790028F7D1DD
:102AB00001200021002284F80780FDF71BFE0A2078
:102AC000FEF7D8F8E07901280AD16FF0630500BF5E
:102AD000013505D20120FEF7CDF8E0790028F7D1C5
:102AE00002200021002284F80780FDF703FE0A205F
:102AF000FEF7C0F8FEF7E8F960616079012849D176
:102B000084F805A084F802A084F806A0607A20B1B9
:102B100084F809A0FEF7D8F96061207A002808BF80
:102B2000FFF734FCE07901280AD16FF0630500BF9C
:102B3000013505D20120FEF79DF8E0790028F7D194
:102B40000120012184F80780FDF7BEFD0A20FEF771
:102B500091F8E079012809D16FF06305013505D2BC
:102B60000120FEF787F8E0790028F7D10220012143
:102B700084F80780FDF7A8FD0A20FEF77BF8FEF732
:102B8000A3F96061A079012807D0207A01280ED02E
:102B900048E000BFA0790128F7D184F806A0607A48
:102BA000002808BF84F80980207A01283AD1607A89
:102BB000C0BBFEF789F96169401AB0F5FA6F31D9E7
:102BC000E07901280AD16FF0630500BF013505D215
:102BD0000120FEF74FF8E0790028F7D1012000210D
:102BE000002284F80780FDF725FD0A20FEF742F851
:102BF000E07901280AD16FF0630500BF013505D2E5
:102C00000120FEF737F8E0790028F7D102200021F3
:102C1000002284F80780FDF70DFD0A20FEF72AF850
:102C200084F808A0607A002862D0607A04283FF611
:102C300019AFDFE810F00500090049018901EF0034
:102C40000120FEF717F811E7207A002808BFFFF7E8
:102C50009DFBFEF739F9C4E9060084F80CA084F85E
:102C60000AA0E079012809D16FF06305013505D28A
:102C70000120FDF7FFFFE0790028F7D101200021B6
:102C80001E221E2384F80780CDF800A0FDF7E6FD84
:102C90000A20FDF7EFFF84F80B80E079012809D1C5
:102CA0006FF06305013505D20120FDF7E3FFE07900
:102CB0000028F7D102203C213C22022384F807801F
:102CC000CDF800A0FDF790FD0A20FDF7D3FFE079D5
:102CD000012840F08F816FF0630500BF013580F05F
:102CE00089810120FDF7C6FFE0790028F6D181E156
:102CF000A0780128A4D184F802A0207A002808BF77
:102D0000FFF744FBE578FEF7DFF8002D606100F087
:102D10007B81D4E90B5042F60231A66BCBF607510A
:102D200000F0AEFD4CF6CD4107463046C3F64C618F
:102D300000F038FF4CF6CD4106463846C3F64C71DC
:102D400000F030FF314600F003FDA0630027284665
:102D500000212763A76200F080FD80B9666A002722
:102D6000C4F296373046394600F062FD38B9002784
:102D7000CCF296373046394600F061FD08B93E4640
:102D8000676240F20009C4F2C8194846294600F0BB
:102D9000D5FF42F60231C3F6075100F071FD616BB9
:102DA000054608464CF6CD41C3F64C6100F0FAFEEC
:102DB0004CF6CD4107462846C3F64C7100F0F2FEB2
:102DC000394600F0C5FC002160633046C4F248116A
:102DD000C4F82C9000F0BCFC0021C4F24851054618
:102DE00000F026FD002100281CBF0025C4F2485534
:102DF0002846CCF2485100F030FD00281CBF0025C9
:102E0000CCF24855284600F031FE002840F0ED8114
:102E100016E700BFA07801287FF412AF84F802A063
:102E2000E07800287FF40CAFB4F90E60304600F073
:102E300039FE49F69A11C3F69961054600F0B2FED3
:102E4000276B012E814604DB3846002100F005FD8A
:102E500050B9B6F1FF3F00F305833846002100F07A
:102E6000F5FC002840F0FE820026A66225F0004B0B
:102E70002846394600F062FF42F60231C3F6075198
:102E800000F0FEFCA16B074608464CF6CD41C3F6A8
:102E90004C6100F087FE4CF6CD4180463846C3F6C3
:102EA0004C7100F07FFE414600F052FCA063584692
:102EB0004FF08241256300F0BBFC002800F0108138
:102EC00048463146EEE000BFFDF7FEFFA169401A1B
:102ED00040F6C5118842C0F0A18184F80A80E079EB
:102EE000012809D16FF06305013505D20120FDF7F6
:102EF000C1FEE0790028F7D10120002184F8078085
:102F0000FDF796FC0A20FDF7B5FEE079012809D10E
:102F10006FF06305013505D20120FDF7ABFEE079C6
:102F20000028F7D10220002184F80780FDF780FCFB
:102F30000A20FDF79FFE0420607284F809A0FDF7C7
:102F4000C3FF60617CE600BFFDF7BEFF216A8842D7
:102F500040F22C82207A002808BFFFF717FAFDF70D
:102F6000B3FFC4E9060084F80CA084F80AA0E07955
:102F7000012809D16FF06305013505D20120FDF765
:102F800079FEE0790028F7D1012000211E221E23BE
:102F900084F80780CDF800A0FDF760FC0A20FDF75B
:102FA00069FE84F80B80E079012809D16FF0630590
:102FB000013505D20120FDF75DFEE0790028F7D14B
:102FC00002203C213C22022384F80780CDF800A097
:102FD000FDF70AFC0A20FDF74DFEE079012809D132
:102FE0006FF06305013505D20120FDF743FEE0795E
:102FF0000028F7D10220C82184F80780FDF790FB54
:10300000022060721CE600BFB4F90E70384600F072
:1030100049FD49F69A11C3F69961064600F0C2FDD2
:10302000256B012F814604DB2846002100F015FCAA
:1030300050B9B7F1FF3F00F3E5812846002100F0C9
:1030400005FC002840F0DE814FF00008C4F828801D
:1030500026F0004B3046294600F070FE42F6023161
:10306000C3F6075100F00CFCA16B054608464CF670
:10307000CD41C3F64C6100F095FD4CF6CD410746BD
:103080002846C3F64C7100F08DFD394600F060FB18
:10309000A06358464FF08241266300F0C9FBF8B1A7
:1030A0004846414600F054FB0021C4F24851054611
:1030B00000F0BEFB002100281CBF0025C4F24855CB
:1030C0002846CCF2485100F0C8FB00281CBF002560
:1030D000CCF24855284600F0C9FC20B915E000BFE5
:1030E0000020A06288B14FF44861B0F5486FA8BFD6
:1030F00008464FF2803110F5486FCFF6FF71D8BF08
:10310000084641420120FDF70BFBB4F9107007F1AE
:10311000190000F0C7FC4FF07C51064600F042FD5C
:10312000E56A6FF018018F42814604DD28460021D0
:1031300000F093FB58B96FF01800874280F2448189
:103140002846002100F082FB002840F03D814FF02E
:103150000008C4F8248026F0004B3046294600F0D1
:10316000EDFD42F60231C3F6075100F089FB616BB9
:10317000054608464CF6CD41C3F64C6100F012FD01
:103180004CF6CD4107462846C3F64C7100F00AFDC7
:10319000394600F0DDFA606358464FF08241E6623E
:1031A00000F046FBA0B34846414600F0D1FA0021AA
:1031B000C4F24851054600F03BFB002100281CBF2B
:1031C0000025C4F248552846CCF2485100F045FB92
:1031D00000281CBF0025CCF24855284600F046FCCC
:1031E00000284FF001083FF42BAD0146B0F5486FC1
:1031F0004FF44860A8BF01464FF28030CFF6FF7011
:1032000011F5486FD8BF01460220FDF789FA17E58E
:10321000C4F824A04FF0010812E500BFFDF754FEEA
:10322000E169401A48F2B511C1F64E31A0FB010127
:10323000C1F3801000284FF0FF3008BF0120E27A70
:103240004FF0FF0108BF0121914216D0E072E179F1
:1032500001290AD16FF06305013505D20120FDF780
:1032600009FDE0790028F7D1E07A40B2C821414356
:10327000022084F80780FDF753FAA07801287FF434
:10328000DFAC84F802A0E078002840F0B780B4F901
:103290000E106FF01800AF38814240F3AF80B4F9E0
:1032A0000E10C72900F3AA80B4F91010814240F330
:1032B000A580B4F91000C72800F3A080207B01305E
:1032C000C1B203292073FFF4BBACE079012809D116
:1032D0006FF06305013505D20120FDF7CBFCE079E5
:1032E0000028F7D10120002184F80780FDF7A0FA1B
:1032F0000A20FDF7BFFCE079012809D16FF06305D2
:10330000013505D20120FDF7B5FCE0790028F7D1A1
:103310000220002184F80780FDF78AFA1420FDF7C7
:10332000A9FCE079012809D16FF06305013505D2C8
:103330000120FDF79FFCE0790028F7D101204FF430
:1033400096719622022384F80780CDF800A0FDF73D
:103350004BFA0A20FDF78EFCE07901280AD16FF0C4
:10336000630500BF013505D20120FDF783FCE0793C
:103370000028F7D1022078213C22022384F807801C
:10338000CDF800A0FDF730FA0A20FDF773FCC4E980
:1033900009AAC4E90BAAC4E90DAA84F80DA0FDF797
:1033A00093FD00F6B830206203202AE6A0780128B9
:1033B0007FF446AC84F802A0E07801283CD184F880
:1033C0000DA0FFF73DBC00BFD4F824800027C4F255
:1033D00096374046394626F0004B00F037FA48B1A0
:1033E0000027CCF296374046394600F028FA0028EC
:1033F0007FF4B3AEB8466762AFE600BF84F80CA0B6
:10340000FFF71EBCD4F828800027C4F29637404648
:10341000394626F0004B00F019FA48B10027CCF2EB
:1034200096374046394600F00AFA00287FF412AE7B
:10343000B846A7620EE600BFE189208A073189B24B
:103440000E292BD8203080B20E2827D8607B01307F
:10345000C1B204296073FFF4F3AB002000F02CF933
:10346000FFF7EEBBA66A40F20008C4F29638304679
:10347000414625F0004B00F0E9F950B140F2000858
:10348000CCF296383046414600F0D9F900287FF456
:10349000EFAC4646C4F82880EAE400BF84F80DA0EB
:1034A000B4F90E60304600F0FDFA49F69A11C3F601
:1034B0009961054600F076FB276B012E029004DB34
:1034C0003846002100F0C9F950B9B6F1FF3F00F3CA
:1034D000BD803846002100F0B9F9002840F0B680E0
:1034E0004FF0000BC4F828B025F0004928463946B3
:1034F00000F024FC42F60231C3F6075100F0C0F997
:10350000A16B074608464CF6CD41C3F64C6100F06E
:1035100049FB4CF6CD4106463846C3F64C7100F0E7
:1035200041FB314600F014F9A06348464FF0824158
:10353000256300F07DF9F8B10298594600F008F9CA
:103540000021C4F24851054600F072F9002100281C
:103550001CBF0025C4F248552846CCF2485100F063
:103560007CF900281CBF0025CCF24855284600F005
:103570007DFA20B915E000BF0020A06288B14FF4A9
:103580004861B0F5486FA8BF08464FF2803110F58A
:10359000486FCFF6FF71D8BF084641420120FDF7C2
:1035A000BFF8B4F9106006F1190000F07BFA4FF093
:1035B0007C51054600F0F6FAE76A6FF018018E427A
:1035C000029004DD3846002100F047F948B96FF059
:1035D0001800864254DA3846002100F037F90028F6
:1035E0004ED14FF0000BC4F824B025F00049284616
:1035F000394600F0A3FB42F60231C3F6075100F052
:103600003FF9616B074608464CF6CD41C3F64C6165
:1036100000F0C8FA4CF6CD4106463846C3F64C7168
:1036200000F0C0FA314600F093F8606348464FF06E
:103630008241E56200F0FCF820B102985946FFF79C
:10364000C9BB00BFC4F824A0FFF7FABAD4F828B069
:103650000026C4F296365846314625F0004900F05F
:10366000F5F848B10026CCF296365846314600F0BF
:10367000E6F800287FF43AAFB346A66236E700BF0B
:10368000D4F824B00026C4F296365846314625F0C8
:10369000004900F0DBF840B10026CCF296365846DF
:1036A000314600F0CCF80028A1D1B34666629EE70F
:1036B000544553540D0A000070B540F27004C2F234
:1036C0000004A072E07901280AD16FF0630500BF01
:1036D000013505D20120FDF7CDFAE0790028F7D1B8
:1036E000012501200021E571FDF7A2F80A20FDF770
:1036F000C1FAE079012809D16FF06306013605D2DD
:103700000120FDF7B7FAE0790028F7D10220002167
:10371000E571FDF78DF80A20FDF7ACFA0420607220
:1037200070BD000010B500290AD00878002807D025
:1037300005487844FCF7F0FE002801D0002010BDB9
:103740000248784410BD00003E0700003607000024
:1037500090EA010F48BF81F0004100F1F682421A61
:103760003CBF801A89184FEAD052A2EBD1534FF0D8
:103770007F4C1CEA410F18BF9CEA026F00F03B80AF
:103780004FF0004C4CEA00204CEA012121FA03FCE6
:1037900010EB0C0C1ED202F1FF325FEA1C2040EB52
:1037A000C25038BF70471CF07F0F4FEA400C18BF63
:1037B000BCF17F4F38BF7047C3F12003994008BF69
:1037C00020F00100BCF17F4F38BF7047A0F1C0402E
:1037D00000F0AFBA4FEA3C00000A40EBC25028BFED
:1037E0001CF0FF0F4FEA400CE6D018BFBCF17F4F32
:1037F00038BF7047EAE79CEA026F05D010EA5C0F19
:1038000008BF00F00040704710B500F04CFA00BF50
:1038100064FBBE3E10B500F0F5F80CBF012000209F
:1038200010BD10B500F0EEF814BF0120002010BD4F
:1038300010B500F04FF98CBF0120002010BD10B56D
:1038400000F048F92CBF0120002010BD10B500F099
:1038500075F994BF0120002010BD10B500F06EF97D
:1038600034BF0120002010BD401058BFC0F14040BF
:10387000491058BFC1F140418142EFF300807047C9
:103880004FF47F0C1CEAD0121EBF1CEAD11392EA3F
:103890000C0F93EA0C0F00F0858090EA010F48BFEF
:1038A00042F4807240F4000C41F400002CF07F419F
:1038B00020F07F4000B5A2EB030281420FF2081C0A
:1038C000ACEB504E9EF800E0C0F100004FEA4E0E07
:1038D00000FB0EFC38BF49004FEA2C1C0CFB0EF31A
:1038E0004FEACE1E0EEB635E4FEA112C0EFB0CFC72
:1038F0004FEAC1214FEA1C5300FB031102F5FA0203
:103900004FEA112C0EFB0CFC4FEA01314FEADC4C64
:1039100000FB0C1142EB2242C14228BF09184CEBBC
:1039200003335DF804EB10EB410143EBC250B2F5F9
:103930007C0F38BF704729D512F0F00F1CBF00F183
:10394000C04000F0004070470081828384858687F4
:1039500088898B8C8D8E8F919293959697999A9C4E
:103960009D9FA0A2A3A5A7A8AAACAEB0B2B3B5B7BD
:10397000B9BCBEC0C2C5C7C9CCCED1D4D7D9DCDF93
:10398000E2E6E9ECF0F3F7FAFE0000004FEA400C43
:103990000CF1807CBCF17E4F28BF7047B0F1C04075
:1039A00000F0C7B90CEAD11390EA010F48BF42F406
:1039B0008072624538BF634507D213F47F0F16D07B
:1039C00080EA010000F00040704710B500F06BF98C
:1039D000097EFC3E00F005B880EA010000F00040DE
:1039E000704780EA010000F0004000F0A2B912F434
:1039F0007F0F04BF0248704780EA010000F099B9C8
:103A00000000C07F50EA010C00F113801CF5000F8C
:103A100058BFBCF5000F01D48842704707D710F596
:103A2000000F58BF11F5000F15D488427047894226
:103A300070471CF5000F04D5BCF5000FF7D5814287
:103A400070474FF0807C1CEB400F38BF1CEB410FE0
:103A500001D28142704710B500F025F99224490047
:103A60004FF000504FF08051FFF7FEBE41000B0EAB
:103A7000D3F19E0208D950F400034FEA032323FA3E
:103A800002F048BF4042704710B500F00CF900BF8B
:103A900049922480002070476FF0004282EA2000A3
:103AA0007047000010F0004148BF4042B0FA80F378
:103AB00010FA03F2C3F19D030BD051EAC35101EB9D
:103AC0001220530638BF704700F1010008BF20F0F4
:103AD0000100704750EA010C00F113801CF5000F43
:103AE00058BFBCF5000F01D48842704707D710F5C6
:103AF000000F58BF11F5000F15D488427047894256
:103B000070471CF5000F04D5BCF5000FF7D58142B6
:103B100070474FF0807C1CEB400F38BF1CEB410F0F
:103B200001D28142704710B500F0BDF892244900DF
:103B30004FF080504FF00051FFF796BE50EA010C55
:103B400000F113801CF5000F58BFBCF5000F01D425
:103B50008842704707D710F5000F58BF11F5000FC6
:103B600015D488427047894270471CF5000F04D570
:103B7000BCF5000FF7D5814270474FF0807C1CEBFD
:103B8000400F38BF1CEB410F01D28142704710B586
:103B900000F089F8922449004FF000504FF0805116
:103BA000FFF762BE4FF47F0C1CEAD0121EBF1CEA66
:103BB000D11392EA0C0F93EA0C0F00F0478090EAC1
:103BC000010F48BF42F480724FF0004C4CEA0020D5
:103BD0004CEA012102EB0302A0FB0113A2F5000253
:103BE000002918BF43F001035B0028BF4FEA3303ED
:103BF00042EB22425FEA132C4CEBC2502EBFBCEBCF
:103C0000436FB2F57C0F70474FEA036CBCF1004F75
:103C100008BF20F00100B2F57C0F38BF70470BD50C
:103C200082F0FF0212F5803FC8BF704700F1C0402C
:103C3000D8BF00F00040704700F5000C5FEA4C0C64
:103C400048BF7047B0F1C04000F073B80CEAD11320
:103C500090EA010F48BF42F48072624538BF634565
:103C600004D280EA010000F00040704710B500F077
:103C70001AF800BF8900013E00F007B800F009B84B
:103C80005FEA410C5FEA1C6C08D080EA010000F09A
:103C900050B85FEA400C5FEA1C6CF6D14FF0004070
:103CA000A0F5800070470EF1020E2EF0030E5EF8B4
:103CB000044B244204D44FEA4102B2F17F4F11D8A1
:103CC0004FEA4003B3F17F4F0CD80ED14FEAD07CBE
:103CD0000CEB4C0C0CF1020CB2F17F4F08BF4CEB1B
:103CE000D17C04E04FF0080C01E04FEAD17C0CEBF2
:103CF0004C0324FA03F404F00704B4F1040C06D2D4
:103D00000EEB840CBDE810404CF0010C6047DFE87E
:103D10000CF0070802024FF00040A0F5800010BD33
:103D20000846420018BFD2F1807288BF00F0004000
:103D300010BDFF2141EAD050C005704790EA010F45
:103D400048BF81F000413FF50AAD421A04D882F025
:103D50000042A0EB020011444FEAD052A2EBD15333
:103D60004FF07F4C1CEA410F18BF9CEA026F4AD00B
:103D70004FF0004C4CEA00204CEA012121FA03FCF0
:103D8000B0EB0C0C0FD412F0FE0F36D05FEA4C00F3
:103D90001DD5001240EBC25038BF70471CF03F0FDA
:103DA00018BF70470BE05FEA1C20A2F1010240EB54
:103DB000C25038BF70471CF07F0F18BF7047C3F167
:103DC0002003994014BF401E20F0010070474FEAC5
:103DD0001223800808BF7047B0FA80FCA2EB0C02E7
:103DE000CCF1280C60FA0CF093EA122F04BF00EB20
:103DF000C25070474FEAC3707047130A5FEADC1085
:103E000008BF7047F6E79CEA026F04D010EA5C0F27
:103E100008BF0020704710B5FFF745FF40DFF63EB2
:103E200081F0004070470000000000000000010227
:103E30000304060708090000000001020304010250
:103E400002030405060708090A0B0C0D0E0F1010DB
:103E5000803F000800000020100000005001000812
:103E6000903F000810000020A0080000700100082A
:103E70001001000043000000F8FFFFFF0040404039
:103E8000404040404040414141414140404040402D
:103E900040404040404040404040404040050202D9
:103EA0000202020202020202020202020220202098
:103EB00020202020202020020202020202029090F4
:103EC00090909090101010101010101010101010F2
:103ED0001010101010101010020202020202888846
:103EE0008888888808080808080808080808080852
:103EF000080808080808080802020202400000003A
:103F000000000000000000000000000000000000B1
:103F100000000000000000000000000000000000A1
:103F20000000000000000000000000000000000091
:103F30000000000000000000000000000000000081
:103F40000000000000000000000000000000000071
:103F50000000000000000000000000000000000061
:103F60000000000000000000000000000000000051
:103F70000000000000000000000000000000000041
:103F8000010000001000000000127A000000000094
:04000005080000ED02
:00000001FF
